:100000000C9434000C9451000C9451000C94510049
:100010000C9451000C9451000C9451000C9451001C
:100020000C9451000C9451000C9451000C9441011B
:100030000C9451000C9451000C9451000C945100FC
:100040000C9451000C9451000C9451000C945100EC
:100050000C9451000C9451000C9451000C945100DC
:100060000C9451000C94510011241FBECFEFD8E026
:10007000DEBFCDBF11E0A0E0B1E0ECEFF9E002C0DF
:1000800005900D92A031B107D9F721E0A0E1B1E0D0
:1000900001C01D92A238B207E1F70E94A5010C949D
:1000A000FC040C9400008AB18C6F8AB908955B9AA5
:1000B000E7ECF0E03197F1F700C000009BB19F70D2
:1000C0009BB99BB18295807F892B8BB95B9887EC1C
:1000D00090E00197F1F700C000000895CF93C82F7A
:1000E000613011F45A9801C05A9A8C2F82958F7002
:1000F0000E9457008C2F0E945700CF9108958FE5E2
:100100009AEE0197F1F700C0000083E00E945700CB
:100110008FE19EE40197F1F700C0000083E00E94A8
:1001200057008FE891E00197F1F700C0000083E0ED
:100130000E9457008FE99FE00197F1F700C000008F
:1001400082E00E9457008FE99FE00197F1F700C01D
:10015000000061E088E20E946E008FE99FE0019755
:10016000F1F700C0000061E08CE00E946E008FE9B2
:100170009FE00197F1F700C0000061E086E00E9477
:100180006E008FE99FE00197F1F700C0000008952D
:1001900061E081E00E946E008FE697E10197F1F740
:1001A00000C00000089521E030E0261B310990E4F2
:1001B000299F800D112461E080680E946E000895DF
:1001C00060E00E946E000895CF93DF93EC01888178
:1001D000882331F021960E94E00089918111FBCFA4
:1001E000DF91CF9108950F931F93CF93DF93CDB7F6
:1001F000DEB72A970FB6F894DEBF0FBECDBF9F9330
:100200008F9380E091E09F938F938E010F5F1F4F3C
:100210001F930F930E941202C8010E94E4000F90E6
:100220000F900F900F900F900F902A960FB6F894A2
:10023000DEBF0FBECDBFDF91CF911F910F9108950B
:1002400080911C0190911D01009741F0EEE1F1E0D9
:10025000825E9E4F1192E817F907E1F710921D0197
:1002600010921C0108955098519A82E08093C40026
:100270001092C50088E18093C1008EE08093C20097
:1002800008951F920F920FB60F9211248F939F9390
:10029000AF93BF938091180190911901A0911A0119
:1002A000B0911B010196A11DB11D8093180190937F
:1002B0001901A0931A01B0931B01BF91AF919F91B7
:1002C0008F910F900FBE0F901F901895E1E8F0E00E
:1002D00080818B608083EFE6F0E0808182608083A4
:1002E000109289008AEF80938800789408950E9484
:1002F00053000E947F000E94660161E080E00E943E
:10030000D30083E091E00E94E400209A289A2FEF26
:1003100089E698E1215080409040E1F700C000005C
:1003200028982FEF89E698E1215080409040E1F72E
:1003300000C000000E94C8000895E0ECF0E0808159
:100340008823ECF78091C600089550980E943301ED
:100350000E947701C4E1D1E00E949D018A30B1F48E
:100360008091100190911101A0911201B09113019F
:100370000196A11DB11D8093100190931101A093CE
:100380001201B09313010E9420010EC020911C01A4
:1003900030911D01F901E25EFE4F80832F5F3F4FD8
:1003A00030931D0120931C01809110019091110147
:1003B000A0911201B0911301883E9340A105B105AF
:1003C00058F20E94C80061E080E00E94D30089E0FA
:1003D00091E00E94E4008091180190911901A09190
:1003E0001A01B0911B0128813981821B930B0E9455
:1003F000F3008091180190911901A0911A01B09118
:100400001B018093140190931501A0931601B093E2
:100410001701109210011092110110921201109206
:1004200013019ACFAEE0B0E0E8E1F2E00C94D3041F
:100430000D891E8986E08C831A8309838FEF9FE7DD
:100440009E838D83AE01475E5F4F6F89788DCE01AD
:1004500001960E943402EF81F885E00FF11F1082AF
:100460002E96E4E00C94EF04ABE0B0E0EAE3F2E0B7
:100470000C94C5046C017B018A01FC011782168271
:10048000838181FFCCC1CE0101963C01F6019381AD
:10049000F70193FD859193FF81917F01882309F4F2
:1004A000BAC1853239F493FD859193FF81917F0123
:1004B000853229F4B60190E00E942B04E7CF912CFD
:1004C000212C312CFFE1F315D8F08B3279F038F480
:1004D000803279F08332A1F4232D20611DC08D324A
:1004E00061F0803369F4232D216016C0832D826072
:1004F000382EE32DE4603E2E2AC0F32DF8601DC097
:1005000037FC2DC020ED280F2A3040F08E32B9F490
:1005100036FC81C1232D2064322E19C036FE06C060
:100520008AE0989E200D1124922E11C0EAE02E9EA2
:10053000200D1124222EF32DF0623F2E08C08C36A0
:1005400021F4832D8068382E02C0883641F4F701EB
:1005500093FD859193FF81917F018111B3CF982FF6
:100560009F7D9554933028F40C5F1F4F9FE3998330
:100570000DC0833631F0833771F0833509F059C0EF
:1005800021C0F801808189830E5F1F4F88248394E6
:10059000912C530113C02801F2E04F0E511CF801B9
:1005A000A080B18036FE03C0692D70E002C06FEFFD
:1005B0007FEFC5010E9420044C018201F32DFF77DB
:1005C0003F2E16C0280122E0420E511CF801A080E7
:1005D000B18036FE03C0692D70E002C06FEF7FEF7F
:1005E000C5010E9415044C01F32DF0683F2E8201D5
:1005F00033FC1BC0822D90E088169906B0F4B6013A
:1006000080E290E00E942B042A94F4CFF50137FC9D
:10061000859137FE81915F01B60190E00E942B0425
:1006200021102A9421E0821A91088114910471F713
:10063000E8C0843611F0893641F5F80137FE07C06D
:1006400060817181828193810C5F1F4F08C060813E
:100650007181072E000C880B990B0E5F1F4FF32D35
:10066000FF763F2E97FF09C0909580957095619514
:100670007F4F8F4F9F4FF0683F2E2AE030E0A3015D
:100680000E946704882E861845C0853731F4232DD3
:100690002F7EB22E2AE030E025C0932D997FB92E0F
:1006A0008F36C1F018F4883579F0B5C0803719F06D
:1006B000883721F0B0C0E92FE061BE2EB4FE0DC036
:1006C000FB2DF460BF2E09C034FE0AC0292F26601E
:1006D000B22E06C028E030E005C020E130E002C0C4
:1006E00020E132E0F801B7FE07C0608171818281AC
:1006F00093810C5F1F4F06C06081718180E090E0A4
:100700000E5F1F4FA3010E946704882E8618FB2DE1
:10071000FF773F2E36FE0DC0232D2E7FA22E89148B
:1007200058F434FE0BC032FC09C0832D8E7EA82EF7
:1007300005C0B82CA32C03C0B82C01C0B92CA4FE52
:100740000FC0FE01E80DF11D8081803321F49A2D48
:10075000997EA92E09C0A2FE06C0B394B39404C02A
:100760008A2D867809F0B394A3FC11C0A0FE06C0C0
:10077000B21488F4280C922C9B180EC0B21460F4AA
:10078000B60180E290E00E942B04B394F7CFB2143C
:1007900018F42B1802C0982C212CA4FE10C0B6010E
:1007A00080E390E00E942B04A2FE17C0A1FC03C0CE
:1007B00088E790E002C088E590E0B6010CC08A2D81
:1007C000867859F0A1FE02C08BE201C080E2A7FC4E
:1007D0008DE2B60190E00E942B04891438F4B60132
:1007E00080E390E00E942B049A94F7CF8A94F3015F
:1007F000E80DF11D8081B60190E00E942B0481106C
:10080000F5CF222009F442CEB60180E290E00E94AA
:100810002B042A94F6CFF6018681978102C08FEFD0
:100820009FEF2B96E2E10C94E104FC0105906150EE
:1008300070400110D8F7809590958E0F9F1F0895F6
:10084000FC016150704001900110D8F7809590959F
:100850008E0F9F1F08950F931F93CF93DF93FB017C
:10086000238121FD03C08FEF9FEF2CC022FF16C014
:1008700046815781248135814217530744F4A08172
:10088000B1819D012F5F3F4F318320838C9326815F
:1008900037812F5F3F4F3783268314C08B01EC01D4
:1008A000FB010084F185E02D0995892BE1F6D80143
:1008B00016968D919C911797019617969C938E93FF
:1008C0001697CE01DF91CF911F910F910895FA01F4
:1008D000AA27283051F1203181F1E8946F936E7F7F
:1008E0006E5F7F4F8F4F9F4FAF4FB1E03ED0B4E070
:1008F0003CD0670F781F891F9A1FA11D680F791FB1
:100900008A1F911DA11D6A0F711D811D911DA11DC1
:1009100020D009F468943F912AE0269F11243019D1
:10092000305D3193DEF6CF010895462F4770405D6C
:100930004193B3E00FD0C9F7F6CF462F4F70405D1B
:100940004A3318F0495D31FD4052419302D0A9F776
:10095000EACFB4E0A6959795879577956795BA9570
:10096000C9F700976105710508959B01AC010A2E36
:1009700006945795479537952795BA95C9F7620F0D
:10098000731F841F951FA01D08952F923F924F92B1
:100990005F926F927F928F929F92AF92BF92CF920F
:1009A000DF92EF92FF920F931F93CF93DF93CDB718
:1009B000DEB7CA1BDB0B0FB6F894DEBF0FBECDBF90
:1009C00009942A88398848885F846E847D848C8461
:1009D0009B84AA84B984C884DF80EE80FD800C816A
:1009E0001B81AA81B981CE0FD11D0FB6F894DEBF4D
:0C09F0000FBECDBFED010895F894FFCFBD
:1009FC0025640053746172740076616C3A200000B7
:00000001FF
